:020000040800F2
:100000000028002041190008D1180008D71800085E
:10001000DD180008E3180008E918000800000000D7
:10002000000000000000000000000000EF180008C1
:10003000FB18000800000000071900081319000849
:100040008919000889190008891900088919000808
:1000500089190008891900088919000889190008F8
:1000600089190008891900088919000889190008E8
:1000700089190008891900088919000889190008D8
:1000800089190008891900088919000889190008C8
:1000900089190008891900088919000889190008B8
:1000A00089190008891900088919000889190008A8
:1000B00021190008891900080000000089190008AA
:1000C00089190008000000000000000089190008DC
:1000D00000000000891900088919000800000000CC
:1000E0008919000889190008891900080000000012
:1000F0000000000000000000000000000000000000
:0C01000000000000000000005FF808F1A3
:10010C0010B5054C237833B9044B13B10448AFF345
:10011C0000800123237010BD54000020000000005B
:10012C00B82F000808B5034B1BB103490348AFF3C4
:10013C00008008BD0000000058000020B82F000807
:10014C0080B500AF01220121114801F01AFF0122F4
:10015C0002210F4801F015FF012204210C4801F087
:10016C0010FF012208210A4801F00BFF0122102187
:10017C00074801F006FF01222021054801F001FF8C
:10018C0001224021024801F0FCFE00BF80BD00BFEF
:10019C00000C014080B582B000AF78607B68012B09
:1001AC0003D07B68022B15D029E0002202212048C5
:1001BC0001F0E7FE012204211D4801F0E2FE0022BD
:1001CC0008211B4801F0DDFE01221021184801F026
:1001DC00D8FE29E001220221154801F0D2FE0022AE
:1001EC000421134801F0CDFE01220821104801F032
:1001FC00C8FE002210210E4801F0C3FE14E00122BB
:10020C0002210B4801F0BDFE01220421084801F037
:10021C00B8FE01220821064801F0B3FE012210218C
:10022C00034801F0AEFE00BF00BF0837BD4680BDDD
:10023C000008014080B582B000AF78607B68092B64
:10024C0000F2808101A252F823F000BF8102000865
:10025C00C90200081103000859030008A103000893
:10026C00E90300083104000879040008C1040008FF
:10027C000905000800220121B64801F082FE002287
:10028C000221B44801F07DFE00220421B14801F0A6
:10029C0078FE00220821AF4801F073FE00221021E5
:1002AC00AC4801F06EFE00222021AA4801F069FE44
:1002BC0001224021A74801F064FE46E10122012100
:1002CC00A44801F05EFE00220221A24801F059FE72
:1002DC00002204219F4801F054FE012208219D4870
:1002EC0001F04FFE012210219A4801F04AFE012232
:1002FC002021984801F045FE01224021954801F04B
:10030C0040FE22E100220121924801F03AFE002237
:10031C000221904801F035FE012204218D4801F0A4
:10032C0030FE002208218B4801F02BFE0022102108
:10033C00884801F026FE01222021864801F021FE8A
:10034C0000224021834801F01CFEFEE00022012126
:10035C00804801F016FE002202217E4801F011FEB9
:10036C00002204217B4801F00CFE00220821794870
:10037C0001F007FE01221021764801F002FE012255
:10038C002021744801F0FDFD00224021714801F04C
:10039C00F8FDDAE0012201216E4801F0F2FD0022A5
:1003AC0002216C4801F0EDFD00220421694801F0A6
:1003BC00E8FD01220821674801F0E3FD012210212C
:1003CC00644801F0DEFD00222021624801F0D9FDD5
:1003DC00002240215F4801F0D4FDB6E0002201214B
:1003EC005C4801F0CEFD012202215A4801F0C9FD02
:1003FC0000220421574801F0C4FD00220821554871
:10040C0001F0BFFD01221021524801F0BAFD00227B
:10041C002021504801F0B5FD002240214D4801F04B
:10042C00B0FD92E0002201214A4801F0AAFD012210
:10043C000221484801F0A5FD00220421454801F0A5
:10044C00A0FD00220821434801F09BFD0022102151
:10045C00404801F096FD002220213E4801F091FD1C
:10046C00002240213B4801F08CFD6EE0002201216E
:10047C00384801F086FD00220221364801F081FD4A
:10048C0000220421334801F07CFD0122082131486F
:10049C0001F077FD012210212E4801F072FD01229E
:1004AC0020212C4801F06DFD01224021294801F04A
:1004BC0068FD4AE000220121264801F062FD00227D
:1004CC000221244801F05DFD00220421214801F0A5
:1004DC0058FD002208211F4801F053FD0022102175
:1004EC001C4801F04EFD002220211A4801F049FD64
:1004FC0000224021174801F044FD26E00022012192
:10050C00144801F03EFD00220221124801F039FD91
:10051C00002204210F4801F034FD002208210D486F
:10052C0001F02FFD012210210A4801F02AFD0022C2
:10053C002021084801F025FD00224021054801F04A
:10054C0020FD02E0FFF7FCFD00BF00BF0837BD46F1
:10055C0080BD00BF000C014080B582B000AF786058
:10056C007B68092B00F2BC8101A252F823F000BF7A
:10057C00A5050008F90500084D060008A1060008AD
:10058C00F5060008490700089D070008F107000858
:10059C00450800089908000800228021D34801F082
:1005AC00F0FC00224FF48071D04801F0EAFC0022EC
:1005BC004FF40071CD4801F0E4FC00224FF480614F
:1005CC00CA4801F0DEFC00224FF40061C74801F07C
:1005DC00D8FC00224FF48051C44801F0D2FC012217
:1005EC004FF40051C14801F0CCFC7AE1012280218A
:1005FC00BE4801F0C6FC00224FF48071BB4801F0EC
:10060C00C0FC00224FF40071B84801F0BAFC012282
:10061C004FF48061B54801F0B4FC01224FF4006145
:10062C00B24801F0AEFC01224FF48051AF4801F00A
:10063C00A8FC01224FF40051AC4801F0A2FC50E19F
:10064C0000228021A94801F09CFC00224FF480710B
:10065C00A64801F096FC01224FF40071A34801F06A
:10066C0090FC00224FF48061A04801F08AFC00222B
:10067C004FF400619D4801F084FC01224FF480513D
:10068C009A4801F07EFC00224FF40051974801F08B
:10069C0078FC26E100228021944801F072FC0022B3
:1006AC004FF48071914801F06CFC00224FF4007102
:1006BC008E4801F066FC00224FF480618B4801F0FB
:1006CC0060FC01224FF40061884801F05AFC0122C1
:1006DC004FF48051854801F054FC00224FF4005136
:1006EC00824801F04EFCFCE0012280217F4801F0A1
:1006FC0048FC00224FF480717C4801F042FC00223F
:10070C004FF40071794801F03CFC01224FF48061F8
:10071C00764801F036FC01224FF40061734801F079
:10072C0030FC00224FF48051704801F02AFC00226A
:10073C004FF400516D4801F024FCD2E000228021DE
:10074C006A4801F01EFC01224FF48071674801F0E9
:10075C0018FC00224FF40071644801F012FC0022D6
:10076C004FF48061614801F00CFC01224FF40061F0
:10077C005E4801F006FC00224FF480515B4801F00A
:10078C0000FC00224FF40051584801F0FAFBA8E09D
:10079C0000228021554801F0F4FB01224FF48071B6
:1007AC00524801F0EEFB00224FF400714F4801F06B
:1007BC00E8FB00224FF480614C4801F0E2FB002280
:1007CC004FF40061494801F0DCFB00224FF48051EA
:1007DC00464801F0D6FB00224FF40051434801F08B
:1007EC00D0FB7EE000228021404801F0CAFB0022B1
:1007FC004FF480713D4801F0C4FB00224FF40071AE
:10080C003A4801F0BEFB01224FF48061374801F0F9
:10081C00B8FB01224FF40061344801F0B2FB012215
:10082C004FF48051314801F0ACFB01224FF40051E0
:10083C002E4801F0A6FB54E0002280212B4801F049
:10084C00A0FB00224FF48071284801F09AFB002293
:10085C004FF40071254801F094FB00224FF48061A5
:10086C00224801F08EFB00224FF400611F4801F07A
:10087C0088FB00224FF480511C4801F082FB0022BF
:10088C004FF40051194801F07CFB2AE00022802132
:10089C00164801F076FB00224FF48071134801F0EA
:1008AC0070FB00224FF40071104801F06AFB00222B
:1008BC004FF480610D4801F064FB01224FF400619C
:1008CC000A4801F05EFB00224FF48051074801F00A
:1008DC0058FB00224FF40051044801F052FB00E099
:1008EC0000BF00BF0837BD4680BD00BF000C0140F3
:1008FC0080B582B000AF78607B68023B032B4FD889
:10090C0001A252F823F000BF250900088B0900084A
:10091C006909000847090008244B5B685A1E2349E3
:10092C004A601846FFF718FE204BDB685A1E1F4919
:10093C00CA601846FFF77EFC33E01C4B5B685A1EFE
:10094C001A494A601846FFF707FE184B5B695A1E96
:10095C0016494A611846FFF76DFC22E0134BDB6821
:10096C005A1E1249CA601846FFF7F6FD0F4B5B681A
:10097C005A1E0E494A601846FFF75CFC11E00B4BFF
:10098C005B695A1E09494A611846FFF7E5FD074B9A
:10099C005B685A1E05494A601846FFF74BFC00E09D
:1009AC0000BF00BF0837BD4680BD00BF300000202F
:1009BC0080B582B000AF78607B68023B032B37D8E0
:1009CC0001A252F823F000BFE5090008270A00082D
:1009DC00110A0008FB090008184B1B681846FFF7A2
:1009EC00BBFD164B9B681846FFF724FC21E0134B0C
:1009FC001B681846FFF7B0FD104B1B691846FFF734
:100A0C0019FC16E00D4B9B681846FFF7A5FD0B4B28
:100A1C001B681846FFF70EFC0BE0084B1B691846C9
:100A2C00FFF79AFD054B1B681846FFF703FC00E027
:100A3C0000BF00BF0837BD4680BD00BF300000209E
:100A4C0080B500AF3D4B5B68002B0CDA3B4B1B6851
:100A5C00002B08DD394B09225A60384B1B68013BCF
:100A6C00364A13600BE0354B5B68002B07DA344BCE
:100A7C005B68324A5360324B1B68304A13602F4B11
:100A8C00DB68002B0CDA2D4B9B68002B08DD2B4B05
:100A9C000922DA60294B9B68013B284A93600BE0E2
:100AAC00264BDB68002B07DA254BDB68234AD36027
:100ABC00234B9B68214A9360204B5B69002B0CDA1B
:100ACC001E4B1B69002B08DD1C4B09225A611B4B6A
:100ADC001B69013B194A13610BE0184B5B69002B36
:100AEC0007DA174B5B69154A5361154B1B69134A9F
:100AFC001361144B9B68002B0DD04FF47A710220BC
:100B0C0000F03AFE0120FFF745FB0F4B1B6818461F
:100B1C00FFF74EFF10E00B4BDB68002B0CD04FF4B3
:100B2C007A71032000F028FE0220FFF733FB064BFE
:100B3C001B681846FFF7DCFE00BF80BD30000020AC
:100B4C0018000020440100207000002080B500AF88
:100B5C00012000F075F90346002B1FD02C4B5B686D
:100B6C0001332B4A53602A4B5B680A2B09D1284B63
:100B7C001B68092B05D1264B00221A60244B00223E
:100B8C005A60234B5B68092B16DD214B00225A60FF
:100B9C001F4B1B6801331E4A13600DE0022000F04E
:100BAC004FF90346002B07D0194B1B68194A1360E9
:100BBC00174B5B68174A5360174B9B68002B10D080
:100BCC004FF47A71022000F0D7FD0120FFF7E2FA12
:100BDC000020FFF7C1FC0E4B1B681846FFF72AFBE1
:100BEC0013E00D4BDB68002B0FD04FF47A71032010
:100BFC0000F0C2FD0220FFF7CDFA0220FFF7ACFC9B
:100C0C00034B5B681846FFF715FB00BF80BD00BFA8
:100C1C0030000020180000204401002080B500AFF7
:100C2C00012000F00DF90346002B1FD02C4B5B6903
:100C3C0001332B4A53612A4B5B690A2B09D1284B90
:100C4C001B69092B05D1264B00225A61244B00222B
:100C5C001A61234B5B69092B16DD214B00225A616B
:100C6C001F4B1B6901331E4A13610DE0022000F07B
:100C7C00E7F80346002B07D0194B5B69194A5361FF
:100C8C00174B1B69174A1361174B9B68002B10D02D
:100C9C004FF47A71022000F06FFD0120FFF77AFA11
:100CAC000020FFF759FC0E4B1B691846FFF7C2FAE0
:100CBC0013E00D4BDB68002B0FD04FF47A7103203F
:100CCC0000F05AFD0220FFF765FA0320FFF744FC01
:100CDC00034B5B691846FFF7ADFA00BF80BD00BF40
:100CEC0030000020180000204401002080B500AF27
:100CFC00012000F0A5F80346002B1FD02C4BDB681D
:100D0C0001332B4AD3602A4BDB680A2B09D1284BC1
:100D1C009B68092B05D1264B0022DA60244B00225C
:100D2C009A60234BDB68092B16DD214B0022DA601D
:100D3C001F4B9B6801331E4A93600DE0022000F0AC
:100D4C007FF80346002B07D0194BDB68194AD36098
:100D5C00174B9B68174A9360174B9B68002B10D05E
:100D6C004FF47A71022000F007FD0120FFF712FA10
:100D7C000020FFF7F1FB0E4B9B681846FFF75AFA61
:100D8C0013E00D4BDB68002B0FD04FF47A7103206E
:100D9C0000F0F2FC0220FFF7FDF90420FFF7DCFB6A
:100DAC00034BDB681846FFF745FA00BF80BD00BF58
:100DBC0030000020180000204401002080B483B0D3
:100DCC0000AF7860164A7B68012142F82310154A5F
:100DDC007B68012142F82310134A7B68012142F8F9
:100DEC002310124A7B68012142F82310104A7B68B9
:100DFC004FF4FA7142F823100E4A7B68002142F836
:100E0C0023100D4A7B68002142F823100B4A7B68A3
:100E1C00002142F8231000BF0C37BD4680BC704740
:100E2C00800000208C000020BC00002074000020FA
:100E3C0098000020B0000020C8000020A400002072
:100E4C0080B584B000AF7860204A7B6852F82330BC
:100E5C00012B36D17B68002B1ED11D4B1B68013337
:100E6C001B4A13600A21022000F086FC4FF4FF712C
:100E7C00032000F081FC0023FB600AE0154AFB68AC
:100E8C0052F823201449FB6841F82320FB680133F6
:100E9C00FB60FB68052BF1DD0D4B1B68042B09DD9A
:100EAC000E4B01221A600A4B01221A60002100200D
:100EBC0000F062FC054A7B68002142F823100123F4
:100ECC0000E0002318461037BD4680BDA40000206A
:100EDC0014000020180000203000002070000020BA
:100EEC0080B582B000AF00237B607CE0424A7B6817
:100EFC0052F8232041497B6841F82320404A7B6803
:100F0C0052F823203C497B6841F823203D4A7B68FA
:100F1C0052F823203C497B6831F8133019461046AF
:100F2C0001F018F803461946354A7B6842F823103D
:100F3C00314A7B6852F8232031497B6851F82330C1
:100F4C009A424DD12C4A7B6852F823202B497B685E
:100F5C0051F823309A4243D1284A7B6852F8232017
:100F6C002A497B6851F823309A4219D0234A7B686E
:100F7C0052F8232025497B6841F82320234A7B68BB
:100F8C0052F82330002B2BD1214A7B684FF4FA7195
:100F9C0042F823101F4A7B68012142F823101FE0FE
:100FAC001B4A7B6852F823305A1E19497B6841F85A
:100FBC002320174A7B6852F82330002B10D1144A97
:100FCC007B684FF4FA7142F82310104A7B6852F890
:100FDC002330002B04D10F4A7B68012142F82310E7
:100FEC007B6801337B607B68022B7FF77FAF00BF90
:100FFC0000BF0837BD4680BD8C000020BC0000201F
:10100C0080000020000000200C0000207400002054
:10101C0098000020A400002080B500AFC54B1B68D1
:10102C00013B0D2B00F20B8201A252F823F000BF02
:10103C0075100008F910000873120008EB11000875
:10104C00771100084B1400084B1400084B140008CF
:10105C004B1400084B140008E31200085513000849
:10106C00A7130008F9130008B24B02221A600122E0
:10107C002021B14800F085FF01224021AE4800F04C
:10108C0080FF01228021AC4800F07BFF01224FF44D
:10109C008071A94800F075FF01224FF40071A64839
:1010AC0000F06FFF01224FF48061A34800F069FF4C
:1010BC00A24BDB6801334FF47A7202FB03F29F4BB5
:1010CC009B6842F2107101FB03F313441946002094
:1010DC0000F052FB0020FFF7B3FE0346002B02D0BA
:1010EC00944B0B221A60FFF7ABFCA9E101224021C3
:1010FC00914800F046FF002220218F4800F041FF6C
:10110C0000224FF480618C4800F03BFF01224FF429
:10111C008071894800F035FF894B1B68002B18D073
:10112C00884B1B68012B14D1824B05221A60834B10
:10113C005B6901334FF47A7202FB03F27F4B1B693C
:10114C0042F2107101FB03F313441946002000F026
:10115C0013FB0020FFF774FE0346002B02D0754BE7
:10116C000B221A60FFF76CFC6AE101224FF48061DC
:10117C00714800F006FF00224FF400716E4800F039
:10118C0000FF6F4B1B68002B1DD06E4B1B68012B97
:10119C0019D1684B04221A60684BDB681846FFF7BC
:1011AC0049F8664BDB6801334FF47A7202FB03F2A9
:1011BC00624B9B6842F2107101FB03F31344194616
:1011CC00002000F0D9FA0020FFF73AFE0346002B6E
:1011DC0002D0584B0B221A60FFF732FC30E101228F
:1011EC002021554800F0CDFE00228021524800F00D
:1011FC00C8FE01224FF400714F4800F0C2FE0022DD
:10120C004FF480714C4800F0BCFE4D4B1B68002B1A
:10121C001DD04C4B1B68012B19D1464B03221A6075
:10122C00464B5B691846FFF705F8444B5B69013385
:10123C004FF47A7202FB03F2404B1B6942F21071BD
:10124C0001FB03F313441946002000F095FA00202B
:10125C00FFF7F6FD0346002B02D0364B0B221A602B
:10126C00FFF7EEFBECE000224021334800F089FE52
:10127C0001228021304800F084FE314B1B68002B8A
:10128C001DD0304B1B68012B19D12A4B02221A603E
:10129C002A4B5B681846FEF7CDFF284BDB68013301
:1012AC004FF47A7202FB03F2244B9B6842F21071EA
:1012BC0001FB03F313441946002000F05DFA0020F3
:1012CC00FFF7BEFD0346002B02D01A4B0B221A600F
:1012DC00FFF7B6FBB4E00021002000F04DFA4FF40C
:1012EC00FA71012000F048FA124B0C221A6001220C
:1012FC008021114800F045FE012240210E4800F0EB
:10130C0040FE002220210C4800F03BFE01224FF44D
:10131C008061094800F035FE01224FF40071064847
:10132C0000F02FFE00224FF48071034800F029FEDC
:10133C0086E000BF7000002000080140180000206B
:10134C0044010020140000203E4B5B68002B0DD0A4
:10135C0020213D4800F02DFE4FF480713A4800F0FA
:10136C0028FE4FF4FA71012000F006FA0020FFF776
:10137C0067FD0346002B0DD0344B0D221A60012261
:10138C002021314800F0FDFD01224FF480712E48E0
:10139C0000F0F7FDFFF7DAFB52E02A4B5B68002BFD
:1013AC000DD04021284800F004FE4FF4007126486F
:1013BC0000F0FFFD4FF4FA71012000F0DDF9002080
:1013CC00FFF73EFD0346002B0DD0204B0E221A607A
:1013DC00012240211C4800F0D4FD01224FF4007181
:1013EC00194800F0CEFDFFF719FC29E0154B5B689E
:1013FC00002B0DD08021144800F0DBFD4FF48061F0
:10140C00114800F0D6FD4FF4FA71012000F0B4F948
:10141C000020FFF715FD0346002B0DD00B4B0122CE
:10142C001A6001228021084800F0ABFD01224FF424
:10143C008061054800F0A5FDFFF758FC00E000BFF7
:10144C0000BF80BD44010020000801407000002056
:10145C0080B500AFFEF774FE4FF0FF30FEF79AFE3A
:10146C0001228021244800F08CFD00224FF4807171
:10147C00214800F086FD00224FF400711E4800F058
:10148C0080FD01224FF480611B4800F07AFD01229F
:10149C004FF40061184800F074FD01224FF48051A4
:1014AC00154800F06EFD01224FF40051124800F077
:1014BC0068FD01222021114800F063FD01228021EA
:1014CC000E4800F05EFD012240210C4800F059FD51
:1014DC0001224FF48071094800F053FD01224FF4B2
:1014EC008061064800F04DFD01224FF40071034865
:1014FC0000F047FD00BF80BD000C0140000801401A
:10150C0080B500AF00F03CFA00F02AF800F0B0F81B
:10151C0000F062F8104801F091F9FFF799FF0020F4
:10152C00FFF74CFC0120FFF749FC0220FFF746FCBB
:10153C000A4B01221A600A21022000F01DF94FF417
:10154C00FF71032000F018F94FF47A71042000F0B9
:10155C0013F9FFF761FDFCE7D400002070000020B8
:10156C0080B590B000AF07F118032822002118466F
:10157C0001F014FD3B1D00221A605A609A60DA607B
:10158C001A610223BB610123BB621023FB6200239F
:10159C007B6307F11803184600F024FD0346002B6B
:1015AC0001D000F0E3F80F237B600023BB60002325
:1015BC00FB6000233B6100237B613B1D002118462F
:1015CC0000F090FF0346002B01D000F0CFF800BFD5
:1015DC004037BD4680BD000080B586B000AF07F136
:1015EC00080300221A605A609A60DA603B460022B7
:1015FC001A605A601D4B4FF080421A601B4B41F62B
:10160C003F725A60194B00229A60184B0922DA601B
:10161C00164B00221A61154B00229A61134801F0F7
:10162C00BDF80346002B01D000F0A0F84FF4805316
:10163C00BB6007F1080319460C4801F03BFA03465E
:10164C00002B01D000F092F800233B6000237B605C
:10165C003B461946054801F013FC0346002B01D00C
:10166C0000F084F800BF1837BD4680BDD4000020C0
:10167C0080B588B000AF07F1100300221A605A60E1
:10168C009A60DA602F4B9B692E4A43F010039361EA
:10169C002C4B9B6903F01003FB60FB68294B9B6987
:1016AC00284A43F004039361264B9B6903F004031F
:1016BC00BB60BB68234B9B69224A43F008039361D0
:1016CC00204B9B6903F008037B607B68002240F28F
:1016DC00FE711D4800F055FC002243F6FF711B48BB
:1016EC0000F04FFC4FF460433B6100237B6101230E
:1016FC00BB6107F110031946154800F0B1FA40F22E
:10170C00FE733B6101237B610023BB610223FB6100
:10171C0007F1100319460C4800F0A2FA43F6FF73C8
:10172C003B6101237B610023BB610223FB6107F159
:10173C0010031946054800F093FA00BF2037BD4648
:10174C0080BD00BF0010024000080140000C0140A9
:10175C000010014080B582B000AF7860FFF7C0FB8D
:10176C0000F02AF800BF0837BD4680BD80B400AF3A
:10177C0072B600BFFEE7000080B483B000AF7860A3
:10178C0039603B68094A82FB03129210DB17D21AAC
:10179C0007497B6841F82320064A7B68002142F800
:1017AC00231000BF0C37BD4680BC70476766666669
:1017BC001C0100204401002080B483B000AF002342
:1017CC007B601CE0124A7B6852F82330002B13DD3F
:1017DC000F4A7B6852F823305A1E0D497B6841F83A
:1017EC0023200B4A7B6852F82330002B04DC094A77
:1017FC007B68012142F823107B6801337B607B6896
:10180C00092BDFDD00BF00BF0C37BD4680BC704725
:10181C001C0100204401002080B485B000AF154BA2
:10182C009B69144A43F001039361124B9B6903F0CB
:10183C000103BB60BB680F4BDB690E4A43F080535E
:10184C00D3610C4BDB6903F080537B607B680A4BE4
:10185C005B68FB60FB6823F0E063FB60FB6843F0B4
:10186C008063FB60044AFB68536000BF1437BD46BD
:10187C0080BC7047001002400000014080B584B06D
:10188C0000AF78607B681B68B3F1804F13D10C4BB1
:10189C00DB690B4A43F00103D361094BDB6903F0AD
:1018AC000103FB60FB68002200211C2000F0A1F961
:1018BC001C2000F0BAF900BF1037BD4680BD00BF38
:1018CC000010024080B400AFFEE780B400AFFEE72A
:1018DC0080B400AFFEE780B400AFFEE780B400AF89
:1018EC00FEE780B400AF00BFBD4680BC704780B43B
:1018FC0000AF00BFBD4680BC704780B400AF00BFD6
:10190C00BD4680BC704780B500AF00F07FF800BFCB
:10191C0080BD000080B500AF024800F0DBFF00BFC7
:10192C0080BD00BFD400002080B400AF00BFBD4616
:10193C0080BC7047FFF7F8FF0B480C490C4A00239A
:10194C0002E0D458C4500433C4188C42F9D3094A69
:10195C00094C002301E013600432A242FBD301F0D6
:10196C00F9FAFFF7CDFD704700000020540000206D
:10197C00FC2F00085400002070010020FEE700003E
:10198C0080B500AF084B1B68074A43F01003136087
:10199C00032000F023F90F2000F008F8FFF73CFFBC
:1019AC000023184680BD00BF0020024080B582B0E5
:1019BC0000AF7860124B1A68124B1B7819464FF423
:1019CC007A73B3FBF1F3B2FBF3F3184600F03BF977
:1019DC000346002B01D001230EE07B680F2B0AD8A5
:1019EC00002279684FF0FF3000F003F9064A7B685B
:1019FC001360002300E0012318460837BD4680BD64
:101A0C0048000020500000204C00002080B400AFA3
:101A1C00054B1B781A46054B1B681344034A13608D
:101A2C0000BFBD4680BC7047500000206C010020F8
:101A3C0080B400AF024B1B681846BD4680BC704793
:101A4C006C01002080B485B000AF78607B6803F037
:101A5C000703FB600C4BDB68BB60BA684FF6FF03F7
:101A6C001340BB60FB681A02BB68134343F0BF63AF
:101A7C0043F40033BB60044ABB68D36000BF143727
:101A8C00BD4680BC704700BF00ED00E080B400AFE5
:101A9C00044BDB681B0A03F007031846BD4680BCE9
:101AAC00704700BF00ED00E080B483B000AF034688
:101ABC00FB7197F90730002B0BDBFB7903F01F024E
:101ACC00064997F907305B09012000FA02F241F848
:101ADC00232000BF0C37BD4680BC704700E100E0FE
:101AEC0080B483B000AF03463960FB7197F90730BF
:101AFC00002B0ADB3B68DAB20C4997F9073012016C
:101B0C00D2B20B4483F800230AE03B68DAB20849EE
:101B1C00FB7903F00F03043B1201D2B20B441A768B
:101B2C0000BF0C37BD4680BC704700BF00E100E031
:101B3C0000ED00E080B489B000AFF860B9607A6065
:101B4C00FB6803F00703FB61FB69C3F10703042B7C
:101B5C0028BF0423BB61FB690433062B02D9FB6944
:101B6C00033B00E000237B614FF0FF32BB6902FABC
:101B7C0003F3DA43BB681A407B699A404FF0FF319C
:101B8C007B6901FA03F3D9437B680B401343184676
:101B9C002437BD4680BC704780B582B000AF7860FA
:101BAC007B68013BB3F1807F01D301230FE00A4A2C
:101BBC007B68013B53600F214FF0FF30FFF790FF24
:101BCC00054B00229A60044B07221A60002318462A
:101BDC000837BD4680BD00BF10E000E080B582B084
:101BEC0000AF78607868FFF72DFF00BF0837BD465F
:101BFC0080BD80B586B000AF0346B9607A60FB73D8
:101C0C0000237B61FFF742FF78617A68B9687869D5
:101C1C00FFF790FF024697F90F3011461846FFF771
:101C2C005FFF00BF1837BD4680BD80B582B000AFE6
:101C3C000346FB7197F907301846FFF735FF00BFD5
:101C4C000837BD4680BD80B582B000AF786078683B
:101C5C00FFF7A2FF034618460837BD4680BD0000BB
:101C6C0080B48BB000AF7860396000237B620023B6
:101C7C003B6248E101227B6A02FA03F3FB613B6899
:101C8C001B68FA691340BB61BA69FB699A4240F060
:101C9C0037813B685B68A34A93425ED0A14A93426A
:101CAC0075D8A14A934258D09F4A93426FD89F4A05
:101CBC00934252D09D4A934269D89D4A93424CD04C
:101CCC009B4A934263D89B4A934246D0994A93428B
:101CDC005DD8122B2AD8122B59D801A252F823F016
:101CEC00671D0008411D0008531D0008951D0008C4
:101CFC009B1D00089B1D00089B1D00089B1D0008D8
:101D0C009B1D00089B1D00089B1D00089B1D0008C7
:101D1C009B1D00089B1D00089B1D00089B1D0008B7
:101D2C009B1D0008491D00085D1D0008824A934256
:101D3C0013D02CE03B68DB683B6229E03B68DB6836
:101D4C0004333B6224E03B68DB6808333B621FE0F2
:101D5C003B68DB680C333B621AE03B689B68002BEA
:101D6C0002D104233B6213E03B689B68012B05D135
:101D7C0008233B627B68FA691A6109E008233B621D
:101D8C007B68FA695A6103E000233B6200E000BF04
:101D9C00BB69FF2B01D87B6801E07B6804337B6156
:101DAC00BB69FF2B02D87B6A9B0002E07B6A083B75
:101DBC009B003B617B691A680F213B6901FA03F3B5
:101DCC00DB431A40396A3B6901FA03F31A437B6916
:101DDC001A603B685B6803F08053002B00F0908026
:101DEC00564B9B69554A43F001039361534B9B69D6
:101DFC0003F00103BB60BB68514A7B6A9B0802334A
:101E0C0052F82330FB607B6A03F003039B000F2224
:101E1C0002FA03F3DB43FA681340FB607B68494A20
:101E2C0093420DD07B68484A934207D07B68474A5F
:101E3C00934201D1022304E0032302E0012300E0DA
:101E4C0000237A6A02F0030292009340FA6813436B
:101E5C00FB603B497B6A9B080233FA6841F82320FC
:101E6C003B685B6803F48013002B06D0384B9A68F0
:101E7C003749BB6913438B6006E0354B9A68BB69E5
:101E8C00DB43334913408B603B685B6803F40013FE
:101E9C00002B06D02E4BDA682D49BB691343CB605F
:101EAC0006E02B4BDA68BB69DB4329491340CB6056
:101EBC003B685B6803F40033002B06D0244B5A6854
:101ECC002349BB6913434B6006E0214B5A68BB693D
:101EDC00DB431F4913404B603B685B6803F4803362
:101EEC00002B06D01A4B1A681949BB6913430B60B7
:101EFC0006E0174B1A68BB69DB43154913400B60AE
:101F0C007B6A01337B623B681A687B6A22FA03F3B3
:101F1C00002B7FF4AFAE00BF00BF2C37BD4680BC9A
:101F2C00704700BF0000321000003110000022107A
:101F3C0000002110000012100000111000100240CF
:101F4C000000014000080140000C0140001001405D
:101F5C000004014080B485B000AF78600B467B80F4
:101F6C007B689A687B881340002B02D00123FB739B
:101F7C0001E00023FB73FB7B18461437BD4680BC85
:101F8C00704780B483B000AF78600B467B801346FB
:101F9C007B707B78002B03D07A887B681A6103E016
:101FAC007B881A047B681A6100BF0C37BD4680BC65
:101FBC00704780B485B000AF78600B467B807B683F
:101FCC00DB68FB607A88FB6813401A04FB68D94312
:101FDC007B880B401A437B681A6100BF1437BD46DF
:101FEC0080BC704780B586B000AF78607B68002BF2
:101FFC0001D101236CE27B681B6803F00103002B09
:10200C0000F08780924B5B6803F00C03042B0CD020
:10201C008F4B5B6803F00C03082B12D18C4B5B6865
:10202C0003F48033B3F5803F0BD1894B1B6803F469
:10203C000033002B6CD07B685B68002B68D10123CC
:10204C0046E27B685B68B3F5803F06D1804B1B682A
:10205C007F4A43F4803313602EE07B685B68002B6F
:10206C000CD17B4B1B687A4A23F480331360784B7A
:10207C001B68774A23F4802313601DE07B685B6840
:10208C00B3F5A02F0CD1724B1B68714A43F480231B
:10209C0013606F4B1B686E4A43F4803313600BE084
:1020AC006B4B1B686A4A23F480331360684B1B68C4
:1020BC00674A23F4802313607B685B68002B13D082
:1020CC00FFF7B6FC386108E0FFF7B2FC02463B694B
:1020DC00D31A642B01D90323FAE15D4B1B6803F47B
:1020EC000033002BF0D014E0FFF7A2FC386108E0BD
:1020FC00FFF79EFC02463B69D31A642B01D90323DC
:10210C00E6E1534B1B6803F40033002BF0D100E0E5
:10211C0000BF7B681B6803F00203002B63D04C4BA1
:10212C005B6803F00C03002B0BD0494B5B6803F08E
:10213C000C03082B1CD1464B5B6803F48033002B3B
:10214C0016D1434B1B6803F00203002B05D07B68B0
:10215C001B69012B01D00123BAE13D4B1B6823F015
:10216C00F8027B685B69DB00394913430B603AE08A
:10217C007B681B69002B20D0364B01221A60FFF7BD
:10218C0057FC386108E0FFF753FC02463B69D31A51
:10219C00022B01D903239BE12D4B1B6803F0020397
:1021AC00002BF0D02A4B1B6823F0F8027B685B698C
:1021BC00DB00274913430B6015E0264B00221A6005
:1021CC00FFF736FC386108E0FFF732FC02463B694A
:1021DC00D31A022B01D903237AE11D4B1B6803F0A0
:1021EC000203002BF0D17B681B6803F00803002B63
:1021FC003AD07B689B69002B19D0174B01221A60CF
:10220C00FFF716FC386108E0FFF712FC02463B6949
:10221C00D31A022B01D903235AE10D4B5B6A03F04D
:10222C000203002BF0D0012000F09AFA1CE00A4BBC
:10223C0000221A60FFF7FCFB38610FE0FFF7F8FB98
:10224C0002463B69D31A022B08D9032340E100BF95
:10225C000010024000004242800442429E4B5B6AE6
:10226C0003F00203002BE9D17B681B6803F0040325
:10227C00002B00F0A6800023FB75974BDB6903F065
:10228C008053002B0DD1944BDB69934A43F0805360
:10229C00D361914BDB6903F08053BB60BB680123B6
:1022AC00FB758E4B1B6803F48073002B18D18B4B82
:1022BC001B688A4A43F480731360FFF7B9FB3861DB
:1022CC0008E0FFF7B5FB02463B69D31A642B01D932
:1022DC000323FDE0814B1B6803F48073002BF0D0CB
:1022EC007B68DB68012B06D17B4B1B6A7A4A43F077
:1022FC00010313622DE07B68DB68002B0CD1764B5D
:10230C001B6A754A23F001031362734B1B6A724AF2
:10231C0023F0040313621CE07B68DB68052B0CD1F3
:10232C006D4B1B6A6C4A43F0040313626A4B1B6AC5
:10233C00694A43F0010313620BE0674B1B6A664A60
:10234C0023F001031362644B1B6A634A23F00403FA
:10235C0013627B68DB68002B15D0FFF769FB3861D3
:10236C000AE0FFF765FB02463B69D31A41F288325B
:10237C00934201D90323ABE0574B1B6A03F00203D2
:10238C00002BEED014E0FFF753FB38610AE0FFF7A7
:10239C004FFB02463B69D31A41F28832934201D972
:1023AC00032395E04C4B1B6A03F00203002BEED188
:1023BC00FB7D012B05D1484BDB69474A23F0805349
:1023CC00D3617B68DB69002B00F08180424B5B683A
:1023DC0003F00C03082B61D07B68DB69022B46D120
:1023EC003F4B00221A60FFF723FB386108E0FFF730
:1023FC001FFB02463B69D31A022B01D9032367E06A
:10240C00354B1B6803F00073002BF0D17B681B6A03
:10241C00B3F5803F08D1304B5B6823F400327B6806
:10242C009B682D4913434B602B4B5B6823F4741250
:10243C007B68196A7B685B6A0B43274913434B60C3
:10244C00274B01221A60FFF7F3FA386108E0FFF717
:10245C00EFFA02463B69D31A022B01D9032337E06A
:10246C001D4B1B6803F00073002BF0D02FE01C4BAE
:10247C0000221A60FFF7DCFA386108E0FFF7D8FA9F
:10248C0002463B69D31A022B01D9032320E0124BDD
:10249C001B6803F00073002BF0D118E07B68DB693C
:1024AC00012B01D1012313E00B4B5B68FB60FB6834
:1024BC0003F480327B681B6A9A4206D1FB6803F4F2
:1024CC0070127B685B6A9A4201D0012300E0002302
:1024DC0018461837BD4680BD001002400070004001
:1024EC006000424280B584B000AF786039607B6890
:1024FC00002B01D10123D0E06A4B1B6803F00703CA
:10250C003A689A4210D9674B1B6823F00702654959
:10251C003B6813430B60634B1B6803F007033A687B
:10252C009A4201D00123B8E07B681B6803F00203D8
:10253C00002B20D07B681B6803F00403002B05D014
:10254C00594B5B68584A43F4E06353607B681B68E3
:10255C0003F00803002B05D0534B5B68524A43F43D
:10256C0060535360504B5B6823F0F0027B689B68B0
:10257C004D4913434B607B681B6803F00103002B30
:10258C0040D07B685B68012B07D1474B1B6803F479
:10259C000033002B15D101237FE07B685B68022B95
:1025AC0007D1414B1B6803F00073002B09D10123A9
:1025BC0073E03D4B1B6803F00203002B01D1012398
:1025CC006BE0394B5B6823F003027B685B68364930
:1025DC0013434B60FFF72CFAF8600AE0FFF728FA78
:1025EC000246FB68D31A41F28832934201D9032385
:1025FC0053E02D4B5B6803F00C027B685B689B001F
:10260C009A42EBD1274B1B6803F007033A689A42B6
:10261C0010D2244B1B6823F0070222493B6813435A
:10262C000B60204B1B6803F007033A689A4201D0F9
:10263C00012332E07B681B6803F00403002B08D0F5
:10264C00194B5B6823F4E0627B68DB681649134323
:10265C004B607B681B6803F00803002B09D0124BFE
:10266C005B6823F460527B681B69DB000E491343E3
:10267C004B6000F021F802460B4B5B681B0903F022
:10268C000F030A49CB5C22FA03F3094A1360094B86
:10269C001B681846FFF78AF9002318461037BD4609
:1026AC0080BD00BF0020024000100240D02F000867
:1026BC00480000204C00002080B487B000AF0023FD
:1026CC00FB600023BB6000237B6100237B60002345
:1026DC003B611E4B5B68FB60FB6803F00C03042B37
:1026EC0002D0082B03D027E0194B3B6127E0FB6895
:1026FC009B0C03F00F03174AD35C7B60FB6803F45D
:10270C008033002B10D0114B5B685B0C03F0010382
:10271C00114AD35CBB607B680D4A02FB03F2BB68B9
:10272C00B2FBF3F37B6104E07B680C4A02FB03F31E
:10273C007B617B693B6102E0054B3B6100BF3B6900
:10274C0018461C37BD4680BC704700BF00100240C5
:10275C0000127A00E02F0008F02F000800093D005D
:10276C0080B485B000AF78600A4B1B680A4AA2FBA4
:10277C0003235B0A7A6802FB03F3FB6000BFFB6870
:10278C005A1EFA60002BF9D100BF00BF1437BD46AA
:10279C0080BC704748000020D34D621080B582B0D9
:1027AC0000AF78607B68002B01D1012341E07B688E
:1027BC0093F83D30DBB2002B06D17B68002283F806
:1027CC003C207868FFF75AF87B68022283F83D209A
:1027DC007B681A687B6804331946104600F056FA79
:1027EC007B68012283F846207B68012283F83E2017
:1027FC007B68012283F83F207B68012283F840200C
:10280C007B68012283F841207B68012283F84220F7
:10281C007B68012283F843207B68012283F84420E3
:10282C007B68012283F845207B68012283F83D20D8
:10283C00002318460837BD4680BD000080B485B023
:10284C0000AF78607B6893F83D30DBB2012B01D090
:10285C00012335E07B68022283F83D207B681B68EE
:10286C00DA687B681B6842F00102DA607B681B68DF
:10287C00164A934209D07B681B68B3F1804F04D091
:10288C007B681B68124A934211D17B681B689B685A
:10289C0003F00703FB60FB68062B10D07B681B68FA
:1028AC001A687B681B6842F001021A6007E07B68BB
:1028BC001B681A687B681B6842F001021A600023CF
:1028CC0018461437BD4680BC704700BF002C014031
:1028DC000004004080B584B000AF78607B681B6852
:1028EC00DB68FB607B681B681B69BB60BB6803F023
:1028FC000203002B20D0FB6803F00203002B1BD03B
:10290C007B681B686FF002021A617B6801221A77E0
:10291C007B681B689B6903F00303002B03D078686A
:10292C0000F098F905E0786800F08BF9786800F011
:10293C009AF97B6800221A77BB6803F00403002B1A
:10294C0020D0FB6803F00403002B1BD07B681B68B2
:10295C006FF004021A617B6802221A777B681B688D
:10296C009B6903F44073002B03D0786800F072F974
:10297C0005E0786800F065F9786800F074F97B6818
:10298C0000221A77BB6803F00803002B20D0FB68E9
:10299C0003F00803002B1BD07B681B686FF0080248
:1029AC001A617B6804221A777B681B68DB6903F069
:1029BC000303002B03D0786800F04CF905E078682D
:1029CC0000F03FF9786800F04EF97B6800221A7726
:1029DC00BB6803F01003002B20D0FB6803F010033E
:1029EC00002B1BD07B681B686FF010021A617B6890
:1029FC0008221A777B681B68DB6903F44073002B91
:102A0C0003D0786800F026F905E0786800F019F931
:102A1C00786800F028F97B6800221A77BB6803F00D
:102A2C000103002B0CD0FB6803F00103002B07D033
:102A3C007B681B686FF001021A617868FEF78AFEEA
:102A4C00BB6803F08003002B0CD0FB6803F0800301
:102A5C00002B07D07B681B686FF080021A617868C6
:102A6C0000F06FFABB6803F04003002B0CD0FB683E
:102A7C0003F04003002B07D07B681B686FF040020B
:102A8C001A61786800F0F8F8BB6803F02003002B9B
:102A9C000CD0FB6803F02003002B07D07B681B686D
:102AAC006FF020021A61786800F042FA00BF10370C
:102ABC00BD4680BD80B584B000AF7860396000231E
:102ACC00FB737B6893F83C30012B01D10223B4E0FB
:102ADC007B68012283F83C207B68022283F83D202E
:102AEC007B681B689B68BB60BB6823F07703BB608B
:102AFC00BB6823F47F43BB607B681B68BA689A6031
:102B0C003B681B68B3F5005F3ED0B3F5005F00F285
:102B1C008780B3F5805F00F08680B3F5805F7FD847
:102B2C00702B1AD0702B7BD8602B50D0602B77D8A1
:102B3C00502B3CD0502B73D8402B58D0402B6FD8F7
:102B4C00302B64D0302B6BD8202B60D0202B67D847
:102B5C00002B5CD0102B5AD062E07B6818683B6865
:102B6C0099683B685A683B68DB6800F06AF97B68D7
:102B7C001B689B68BB60BB6843F07703BB607B68DA
:102B8C001B68BA689A604FE07B6818683B68996864
:102B9C003B685A683B68DB6800F053F97B681B683C
:102BAC009A687B681B6842F480429A603CE07B68C0
:102BBC0018683B6859683B68DB681A4600F0CAF82D
:102BCC007B681B685021184600F021F92CE07B68CB
:102BDC0018683B6859683B68DB681A4600F0E8F8EF
:102BEC007B681B686021184600F011F91CE07B68BB
:102BFC0018683B6859683B68DB681A4600F0AAF80D
:102C0C007B681B684021184600F001F90CE07B68DA
:102C1C001A683B681B681946104600F0F8F803E088
:102C2C000123FB7300E000BF7B68012283F83D2089
:102C3C007B68002283F83C20FB7B18461037BD468E
:102C4C0080BD80B483B000AF786000BF0C37BD4648
:102C5C0080BC704780B483B000AF786000BF0C3785
:102C6C00BD4680BC704780B483B000AF786000BFB5
:102C7C000C37BD4680BC704780B483B000AF786021
:102C8C0000BF0C37BD4680BC7047000080B485B0D7
:102C9C0000AF786039607B681B68FB607B682B4AEF
:102CAC00934207D07B68B3F1804F03D07B68284AEE
:102CBC00934208D1FB6823F07003FB603B685B68B0
:102CCC00FA681343FB607B68204A934207D07B6809
:102CDC00B3F1804F03D07B681D4A934208D1FB6847
:102CEC0023F44073FB603B68DB68FA681343FB60BA
:102CFC00FB6823F080023B685B691343FB607B68D5
:102D0C00FA681A603B689A687B68DA623B681A68F2
:102D1C007B689A627B680D4A934203D13B681A69BF
:102D2C007B681A637B6801225A617B681B6903F01C
:102D3C000103002B05D07B681B6923F001027B6823
:102D4C001A6100BF1437BD4680BC7047002C01408F
:102D5C000004004080B487B000AFF860B9607A60BE
:102D6C00FB681B6A7B61FB681B6A23F00102FB6832
:102D7C001A62FB689B693B613B6923F0F0033B6182
:102D8C007B681B013A6913433B617B6923F00A039F
:102D9C007B617A69BB6813437B61FB683A699A6112
:102DAC00FB687A691A6200BF1C37BD4680BC70474D
:102DBC0080B487B000AFF860B9607A60FB681B6ABA
:102DCC007B61FB681B6A23F01002FB681A62FB68CC
:102DDC009B693B613B6923F470433B617B681B033C
:102DEC003A6913433B617B6923F0A0037B61BB68A9
:102DFC001B017A6913437B61FB683A699A61FB6832
:102E0C007A691A6200BF1C37BD4680BC704780B41B
:102E1C0085B000AF786039607B689B68FB60FB68AD
:102E2C0023F07003FB603A68FB68134343F007031D
:102E3C00FB607B68FA689A6000BF1437BD4680BCA3
:102E4C00704780B487B000AFF860B9607A603B60BF
:102E5C00FB689B687B617B6923F47F437B613B68E8
:102E6C001A027B681A43BB6813437A6913437B616C
:102E7C00FB687A699A6000BF1C37BD4680BC7047FE
:102E8C0080B485B000AF786039607B6893F83C30D3
:102E9C00012B01D1022341E07B68012283F83C2005
:102EAC007B68022283F83D207B681B685B68FB60B3
:102EBC007B681B689B68BB60FB6823F07003FB603E
:102ECC003B681B68FA681343FB607B681B68FA68F5
:102EDC005A607B681B68144A934209D07B681B6854
:102EEC00B3F1804F04D07B681B68104A93420CD11D
:102EFC00BB6823F08003BB603B685B68BA68134314
:102F0C00BB607B681B68BA689A607B68012283F897
:102F1C003D207B68002283F83C20002318461437A0
:102F2C00BD4680BC704700BF002C0140000400402F
:102F3C0080B483B000AF786000BF0C37BD4680BC56
:102F4C00704780B483B000AF786000BF0C37BD46CB
:102F5C0080BC704770B500260C4D0D4C641BA41042
:102F6C00A64209D100F022F800260A4D0A4C641B37
:102F7C00A410A64205D170BD55F8043B9847013604
:102F8C00EEE755F8043B98470136F2E7F42F0008BA
:102F9C00F42F0008F42F0008F82F00080346024411
:102FAC00934200D1704703F8011BF9E7F8B500BF55
:102FBC00F8BC08BC9E467047F8B500BFF8BC08BC0E
:042FCC009E46704766
:102FD00000000000000000000102030406070809C9
:102FE00002030405060708090A0B0C0D0E0F10104A
:042FF00001020000DA
:042FF400310100089F
:042FF8000D010008BF
:102FFC000010014000100140001001400020004072
:10300C00008000000100000000000000040000002F
:10301C0000000000020000000000000001000000A1
:10302C00000000000400000000000000020000008E
:10303C00000000000100000000127A0010000000E7
:04304C00010000007F
:040000050800194195
:00000001FF
